{
  "address": "0xDbf60978923D266164BAa8CbFA9C0AC38CEB6C8D",
  "abi": [
    {
      "inputs": [],
      "stateMutability": "nonpayable",
      "type": "constructor"
    },
    {
      "anonymous": false,
      "inputs": [
        {
          "indexed": true,
          "internalType": "address",
          "name": "account",
          "type": "address"
        },
        {
          "indexed": true,
          "internalType": "address",
          "name": "operator",
          "type": "address"
        },
        {
          "indexed": false,
          "internalType": "bool",
          "name": "approved",
          "type": "bool"
        }
      ],
      "name": "ApprovalForAll",
      "type": "event"
    },
    {
      "anonymous": false,
      "inputs": [
        {
          "indexed": true,
          "internalType": "address",
          "name": "previousOwner",
          "type": "address"
        },
        {
          "indexed": true,
          "internalType": "address",
          "name": "newOwner",
          "type": "address"
        }
      ],
      "name": "OwnershipTransferred",
      "type": "event"
    },
    {
      "anonymous": false,
      "inputs": [
        {
          "indexed": true,
          "internalType": "address",
          "name": "operator",
          "type": "address"
        },
        {
          "indexed": true,
          "internalType": "address",
          "name": "from",
          "type": "address"
        },
        {
          "indexed": true,
          "internalType": "address",
          "name": "to",
          "type": "address"
        },
        {
          "indexed": false,
          "internalType": "uint256[]",
          "name": "ids",
          "type": "uint256[]"
        },
        {
          "indexed": false,
          "internalType": "uint256[]",
          "name": "values",
          "type": "uint256[]"
        }
      ],
      "name": "TransferBatch",
      "type": "event"
    },
    {
      "anonymous": false,
      "inputs": [
        {
          "indexed": true,
          "internalType": "address",
          "name": "operator",
          "type": "address"
        },
        {
          "indexed": true,
          "internalType": "address",
          "name": "from",
          "type": "address"
        },
        {
          "indexed": true,
          "internalType": "address",
          "name": "to",
          "type": "address"
        },
        {
          "indexed": false,
          "internalType": "uint256",
          "name": "id",
          "type": "uint256"
        },
        {
          "indexed": false,
          "internalType": "uint256",
          "name": "value",
          "type": "uint256"
        }
      ],
      "name": "TransferSingle",
      "type": "event"
    },
    {
      "anonymous": false,
      "inputs": [
        {
          "indexed": false,
          "internalType": "string",
          "name": "value",
          "type": "string"
        },
        {
          "indexed": true,
          "internalType": "uint256",
          "name": "id",
          "type": "uint256"
        }
      ],
      "name": "URI",
      "type": "event"
    },
    {
      "inputs": [],
      "name": "EMAIL",
      "outputs": [
        {
          "internalType": "uint256",
          "name": "",
          "type": "uint256"
        }
      ],
      "stateMutability": "view",
      "type": "function"
    },
    {
      "inputs": [],
      "name": "MEMO",
      "outputs": [
        {
          "internalType": "uint256",
          "name": "",
          "type": "uint256"
        }
      ],
      "stateMutability": "view",
      "type": "function"
    },
    {
      "inputs": [
        {
          "internalType": "address",
          "name": "account",
          "type": "address"
        },
        {
          "internalType": "uint256",
          "name": "id",
          "type": "uint256"
        }
      ],
      "name": "balanceOf",
      "outputs": [
        {
          "internalType": "uint256",
          "name": "",
          "type": "uint256"
        }
      ],
      "stateMutability": "view",
      "type": "function"
    },
    {
      "inputs": [
        {
          "internalType": "address[]",
          "name": "accounts",
          "type": "address[]"
        },
        {
          "internalType": "uint256[]",
          "name": "ids",
          "type": "uint256[]"
        }
      ],
      "name": "balanceOfBatch",
      "outputs": [
        {
          "internalType": "uint256[]",
          "name": "",
          "type": "uint256[]"
        }
      ],
      "stateMutability": "view",
      "type": "function"
    },
    {
      "inputs": [
        {
          "internalType": "address",
          "name": "account",
          "type": "address"
        },
        {
          "internalType": "uint256",
          "name": "id",
          "type": "uint256"
        },
        {
          "internalType": "uint256",
          "name": "value",
          "type": "uint256"
        }
      ],
      "name": "burn",
      "outputs": [],
      "stateMutability": "nonpayable",
      "type": "function"
    },
    {
      "inputs": [
        {
          "internalType": "address",
          "name": "account",
          "type": "address"
        },
        {
          "internalType": "uint256[]",
          "name": "ids",
          "type": "uint256[]"
        },
        {
          "internalType": "uint256[]",
          "name": "values",
          "type": "uint256[]"
        }
      ],
      "name": "burnBatch",
      "outputs": [],
      "stateMutability": "nonpayable",
      "type": "function"
    },
    {
      "inputs": [
        {
          "internalType": "uint256",
          "name": "id",
          "type": "uint256"
        }
      ],
      "name": "exists",
      "outputs": [
        {
          "internalType": "bool",
          "name": "",
          "type": "bool"
        }
      ],
      "stateMutability": "view",
      "type": "function"
    },
    {
      "inputs": [
        {
          "internalType": "address",
          "name": "account",
          "type": "address"
        },
        {
          "internalType": "address",
          "name": "operator",
          "type": "address"
        }
      ],
      "name": "isApprovedForAll",
      "outputs": [
        {
          "internalType": "bool",
          "name": "",
          "type": "bool"
        }
      ],
      "stateMutability": "view",
      "type": "function"
    },
    {
      "inputs": [
        {
          "internalType": "address",
          "name": "_to",
          "type": "address"
        },
        {
          "internalType": "uint256",
          "name": "_count",
          "type": "uint256"
        },
        {
          "internalType": "uint256",
          "name": "_tokenId",
          "type": "uint256"
        }
      ],
      "name": "mintTo",
      "outputs": [],
      "stateMutability": "nonpayable",
      "type": "function"
    },
    {
      "inputs": [],
      "name": "owner",
      "outputs": [
        {
          "internalType": "address",
          "name": "",
          "type": "address"
        }
      ],
      "stateMutability": "view",
      "type": "function"
    },
    {
      "inputs": [],
      "name": "renounceOwnership",
      "outputs": [],
      "stateMutability": "nonpayable",
      "type": "function"
    },
    {
      "inputs": [
        {
          "internalType": "address",
          "name": "from",
          "type": "address"
        },
        {
          "internalType": "address",
          "name": "to",
          "type": "address"
        },
        {
          "internalType": "uint256[]",
          "name": "ids",
          "type": "uint256[]"
        },
        {
          "internalType": "uint256[]",
          "name": "amounts",
          "type": "uint256[]"
        },
        {
          "internalType": "bytes",
          "name": "data",
          "type": "bytes"
        }
      ],
      "name": "safeBatchTransferFrom",
      "outputs": [],
      "stateMutability": "nonpayable",
      "type": "function"
    },
    {
      "inputs": [
        {
          "internalType": "address",
          "name": "from",
          "type": "address"
        },
        {
          "internalType": "address",
          "name": "to",
          "type": "address"
        },
        {
          "internalType": "uint256",
          "name": "id",
          "type": "uint256"
        },
        {
          "internalType": "uint256",
          "name": "amount",
          "type": "uint256"
        },
        {
          "internalType": "bytes",
          "name": "data",
          "type": "bytes"
        }
      ],
      "name": "safeTransferFrom",
      "outputs": [],
      "stateMutability": "nonpayable",
      "type": "function"
    },
    {
      "inputs": [
        {
          "internalType": "address",
          "name": "operator",
          "type": "address"
        },
        {
          "internalType": "bool",
          "name": "approved",
          "type": "bool"
        }
      ],
      "name": "setApprovalForAll",
      "outputs": [],
      "stateMutability": "nonpayable",
      "type": "function"
    },
    {
      "inputs": [
        {
          "internalType": "string",
          "name": "newuri",
          "type": "string"
        }
      ],
      "name": "setBaseURI",
      "outputs": [],
      "stateMutability": "nonpayable",
      "type": "function"
    },
    {
      "inputs": [
        {
          "internalType": "bytes4",
          "name": "interfaceId",
          "type": "bytes4"
        }
      ],
      "name": "supportsInterface",
      "outputs": [
        {
          "internalType": "bool",
          "name": "",
          "type": "bool"
        }
      ],
      "stateMutability": "view",
      "type": "function"
    },
    {
      "inputs": [
        {
          "internalType": "uint256",
          "name": "tokenId",
          "type": "uint256"
        }
      ],
      "name": "tokenURI",
      "outputs": [
        {
          "internalType": "string",
          "name": "",
          "type": "string"
        }
      ],
      "stateMutability": "view",
      "type": "function"
    },
    {
      "inputs": [
        {
          "internalType": "uint256",
          "name": "id",
          "type": "uint256"
        }
      ],
      "name": "totalSupply",
      "outputs": [
        {
          "internalType": "uint256",
          "name": "",
          "type": "uint256"
        }
      ],
      "stateMutability": "view",
      "type": "function"
    },
    {
      "inputs": [
        {
          "internalType": "address",
          "name": "newOwner",
          "type": "address"
        }
      ],
      "name": "transferOwnership",
      "outputs": [],
      "stateMutability": "nonpayable",
      "type": "function"
    },
    {
      "inputs": [
        {
          "internalType": "uint256",
          "name": "tokenId",
          "type": "uint256"
        },
        {
          "internalType": "address",
          "name": "recipient",
          "type": "address"
        }
      ],
      "name": "transferTo",
      "outputs": [],
      "stateMutability": "nonpayable",
      "type": "function"
    },
    {
      "inputs": [
        {
          "internalType": "uint256",
          "name": "",
          "type": "uint256"
        }
      ],
      "name": "uri",
      "outputs": [
        {
          "internalType": "string",
          "name": "",
          "type": "string"
        }
      ],
      "stateMutability": "view",
      "type": "function"
    }
  ],
  "transactionHash": "0x2571275edc9657f391b86d5507384a9c0eac3f78261bf1f1f5747b1a7e92ecd7",
  "args": [],
  "numDeployments": 1,
  "solcInputHash": "11a47b959dded7309a953defc04233a3",
  "bytecode": "0x60806040523480156200001157600080fd5b506040518060800160405280604d815260200162002c2b604d91396200003781620000bd565b506200004333620000cf565b620000683360006064604051806020016040528060008152506200012160201b60201c565b6200008d3360016064604051806020016040528060008152506200012160201b60201c565b60405180608001604052806043815260200162002be860439139600590620000b69082620006ef565b50620009d1565b6002620000cb8282620006ef565b5050565b600380546001600160a01b038381166001600160a01b0319831681179093556040519116919082907f8be0079c531659141344cd1fd0a4f28419497f9722a3daafe3b4186f6b6457e090600090a35050565b6001600160a01b038416620001875760405162461bcd60e51b815260206004820152602160248201527f455243313135353a206d696e7420746f20746865207a65726f206164647265736044820152607360f81b60648201526084015b60405180910390fd5b336000620001958562000254565b90506000620001a48562000254565b9050620001b783600089858589620002a2565b6000868152602081815260408083206001600160a01b038b16845290915281208054879290620001e9908490620007d1565b909155505060408051878152602081018790526001600160a01b03808a1692600092918716917fc3d58168c5ae7397731d063d5bbf3d657854427343f4c083240f7aacaa2d0f62910160405180910390a46200024b83600089898989620002c5565b50505050505050565b60408051600180825281830190925260609160009190602080830190803683370190505090508281600081518110620002915762000291620007ed565b602090810291909101015292915050565b620002bd8686868686866200049160201b620008191760201c565b505050505050565b620002e4846001600160a01b03166200063f60201b6200099c1760201c565b15620002bd5760405163f23a6e6160e01b81526001600160a01b0385169063f23a6e61906200032090899089908890889088906004016200084b565b6020604051808303816000875af19250505080156200035e575060408051601f3d908101601f191682019092526200035b9181019062000892565b60015b6200041e576200036d620008c5565b806308c379a003620003ad57506200038462000911565b80620003915750620003af565b8060405162461bcd60e51b81526004016200017e9190620009a0565b505b60405162461bcd60e51b815260206004820152603460248201527f455243313135353a207472616e7366657220746f206e6f6e2d4552433131353560448201527f526563656976657220696d706c656d656e74657200000000000000000000000060648201526084016200017e565b6001600160e01b0319811663f23a6e6160e01b146200024b5760405162461bcd60e51b815260206004820152602860248201527f455243313135353a204552433131353552656365697665722072656a656374656044820152676420746f6b656e7360c01b60648201526084016200017e565b620004ac868686868686620002bd60201b620009941760201c565b6001600160a01b038516620005405760005b83518110156200053e57828181518110620004dd57620004dd620007ed565b602002602001015160046000868481518110620004fe57620004fe620007ed565b602002602001015181526020019081526020016000206000828254620005259190620007d1565b9091555062000536905081620009b5565b9050620004be565b505b6001600160a01b038416620002bd5760005b83518110156200024b576000848281518110620005735762000573620007ed565b602002602001015190506000848381518110620005945762000594620007ed565b6020026020010151905060006004600084815260200190815260200160002054905081811015620006195760405162461bcd60e51b815260206004820152602860248201527f455243313135353a206275726e20616d6f756e74206578636565647320746f74604482015267616c537570706c7960c01b60648201526084016200017e565b600092835260046020526040909220910390556200063781620009b5565b905062000552565b6001600160a01b03163b151590565b634e487b7160e01b600052604160045260246000fd5b600181811c908216806200067957607f821691505b6020821081036200069a57634e487b7160e01b600052602260045260246000fd5b50919050565b601f821115620006ea57600081815260208120601f850160051c81016020861015620006c95750805b601f850160051c820191505b81811015620002bd57828155600101620006d5565b505050565b81516001600160401b038111156200070b576200070b6200064e565b62000723816200071c845462000664565b84620006a0565b602080601f8311600181146200075b5760008415620007425750858301515b600019600386901b1c1916600185901b178555620002bd565b600085815260208120601f198616915b828110156200078c578886015182559484019460019091019084016200076b565b5085821015620007ab5787850151600019600388901b60f8161c191681555b5050505050600190811b01905550565b634e487b7160e01b600052601160045260246000fd5b80820180821115620007e757620007e7620007bb565b92915050565b634e487b7160e01b600052603260045260246000fd5b6000815180845260005b818110156200082b576020818501810151868301820152016200080d565b506000602082860101526020601f19601f83011685010191505092915050565b6001600160a01b03868116825285166020820152604081018490526060810183905260a060808201819052600090620008879083018462000803565b979650505050505050565b600060208284031215620008a557600080fd5b81516001600160e01b031981168114620008be57600080fd5b9392505050565b600060033d1115620008df5760046000803e5060005160e01c5b90565b601f8201601f191681016001600160401b03811182821017156200090a576200090a6200064e565b6040525050565b600060443d1015620009205790565b6040516003193d81016004833e81513d6001600160401b0380831160248401831017156200095057505050505090565b8285019150815181811115620009695750505050505090565b843d8701016020828501011115620009845750505050505090565b6200099560208286010187620008e2565b509095945050505050565b602081526000620008be602083018462000803565b600060018201620009ca57620009ca620007bb565b5060010190565b61220780620009e16000396000f3fe608060405234801561001057600080fd5b50600436106101365760003560e01c80638da5cb5b116100b8578063c87b56dd1161007c578063c87b56dd1461029a578063d4822fbf146102ad578063e985e9c5146102c0578063f242432a146102fc578063f2fde38b1461030f578063f5298aca1461032257600080fd5b80638da5cb5b1461023c578063a22cb46514610257578063a3cd71f61461026a578063bd85b03914610272578063c7eaef1e1461029257600080fd5b80634e1273f4116100ff5780634e1273f4146101cc5780634f558e79146101ec57806355f804b31461020e5780636b20c45414610221578063715018a61461023457600080fd5b8062fdd58e1461013b57806301ffc9a7146101615780630e89341c146101845780632baf2acb146101a45780632eb2c2d6146101b9575b600080fd5b61014e6101493660046115a3565b610335565b6040519081526020015b60405180910390f35b61017461016f3660046115e3565b6103ce565b6040519015158152602001610158565b610197610192366004611607565b61041e565b6040516101589190611670565b6101b76101b2366004611683565b6104b2565b005b6101b76101c736600461180c565b6104d2565b6101df6101da3660046118b6565b61051e565b60405161015891906119bc565b6101746101fa366004611607565b600090815260046020526040902054151590565b6101b761021c3660046119cf565b610648565b6101b761022f366004611a20565b61065c565b6101b761069f565b6003546040516001600160a01b039091168152602001610158565b6101b7610265366004611a94565b6106b3565b61014e600081565b61014e610280366004611607565b60009081526004602052604090205490565b61014e600181565b6101976102a8366004611607565b6106c2565b6101b76102bb366004611ad0565b6106f6565b6101746102ce366004611afc565b6001600160a01b03918216600090815260016020908152604080832093909416825291909152205460ff1690565b6101b761030a366004611b26565b61071b565b6101b761031d366004611b8b565b610760565b6101b7610330366004611683565b6107d6565b60006001600160a01b0383166103a55760405162461bcd60e51b815260206004820152602a60248201527f455243313135353a2061646472657373207a65726f206973206e6f742061207660448201526930b634b21037bbb732b960b11b60648201526084015b60405180910390fd5b506000818152602081815260408083206001600160a01b03861684529091529020545b92915050565b60006001600160e01b03198216636cdb3d1360e11b14806103ff57506001600160e01b031982166303a24d0760e21b145b806103c857506301ffc9a760e01b6001600160e01b03198316146103c8565b60606002805461042d90611ba6565b80601f016020809104026020016040519081016040528092919081815260200182805461045990611ba6565b80156104a65780601f1061047b576101008083540402835291602001916104a6565b820191906000526020600020905b81548152906001019060200180831161048957829003601f168201915b50505050509050919050565b6104cd838383604051806020016040528060008152506109ab565b505050565b6001600160a01b0385163314806104ee57506104ee85336102ce565b61050a5760405162461bcd60e51b815260040161039c90611be0565b6105178585858585610ac5565b5050505050565b606081518351146105835760405162461bcd60e51b815260206004820152602960248201527f455243313135353a206163636f756e747320616e6420696473206c656e677468604482015268040dad2e6dac2e8c6d60bb1b606482015260840161039c565b6000835167ffffffffffffffff81111561059f5761059f6116b6565b6040519080825280602002602001820160405280156105c8578160200160208202803683370190505b50905060005b8451811015610640576106138582815181106105ec576105ec611c2e565b602002602001015185838151811061060657610606611c2e565b6020026020010151610335565b82828151811061062557610625611c2e565b602090810291909101015261063981611c5a565b90506105ce565b509392505050565b610650610c67565b61065981610cc1565b50565b6001600160a01b038316331480610678575061067883336102ce565b6106945760405162461bcd60e51b815260040161039c90611be0565b6104cd838383610ccd565b6106a7610c67565b6106b16000610e6a565b565b6106be338383610ebc565b5050565b606060056106cf83610f9c565b6040516020016106e0929190611c73565b6040516020818303038152906040529050919050565b6106fe610c67565b6106be3382846001604051806020016040528060008152506110c8565b6001600160a01b038516331480610737575061073785336102ce565b6107535760405162461bcd60e51b815260040161039c90611be0565b61051785858585856110c8565b610768610c67565b6001600160a01b0381166107cd5760405162461bcd60e51b815260206004820152602660248201527f4f776e61626c653a206e6577206f776e657220697320746865207a65726f206160448201526564647265737360d01b606482015260840161039c565b61065981610e6a565b6001600160a01b0383163314806107f257506107f283336102ce565b61080e5760405162461bcd60e51b815260040161039c90611be0565b6104cd838383611200565b6001600160a01b0385166108a05760005b835181101561089e5782818151811061084557610845611c2e565b60200260200101516004600086848151811061086357610863611c2e565b6020026020010151815260200190815260200160002060008282546108889190611d19565b90915550610897905081611c5a565b905061082a565b505b6001600160a01b0384166109945760005b83518110156109925760008482815181106108ce576108ce611c2e565b6020026020010151905060008483815181106108ec576108ec611c2e565b602002602001015190506000600460008481526020019081526020016000205490508181101561096f5760405162461bcd60e51b815260206004820152602860248201527f455243313135353a206275726e20616d6f756e74206578636565647320746f74604482015267616c537570706c7960c01b606482015260840161039c565b6000928352600460205260409092209103905561098b81611c5a565b90506108b1565b505b505050505050565b6001600160a01b03163b151590565b6001600160a01b038416610a0b5760405162461bcd60e51b815260206004820152602160248201527f455243313135353a206d696e7420746f20746865207a65726f206164647265736044820152607360f81b606482015260840161039c565b336000610a1785611318565b90506000610a2485611318565b9050610a3583600089858589611363565b6000868152602081815260408083206001600160a01b038b16845290915281208054879290610a65908490611d19565b909155505060408051878152602081018790526001600160a01b03808a1692600092918716917fc3d58168c5ae7397731d063d5bbf3d657854427343f4c083240f7aacaa2d0f62910160405180910390a461099283600089898989611371565b8151835114610ae65760405162461bcd60e51b815260040161039c90611d2c565b6001600160a01b038416610b0c5760405162461bcd60e51b815260040161039c90611d74565b33610b1b818787878787611363565b60005b8451811015610c01576000858281518110610b3b57610b3b611c2e565b602002602001015190506000858381518110610b5957610b59611c2e565b602090810291909101810151600084815280835260408082206001600160a01b038e168352909352919091205490915081811015610ba95760405162461bcd60e51b815260040161039c90611db9565b6000838152602081815260408083206001600160a01b038e8116855292528083208585039055908b16825281208054849290610be6908490611d19565b9250508190555050505080610bfa90611c5a565b9050610b1e565b50846001600160a01b0316866001600160a01b0316826001600160a01b03167f4a39dc06d4c0dbc64b70af90fd698a233a518aa5d07e595d983b8c0526c8f7fb8787604051610c51929190611e03565b60405180910390a46109948187878787876114cc565b6003546001600160a01b031633146106b15760405162461bcd60e51b815260206004820181905260248201527f4f776e61626c653a2063616c6c6572206973206e6f7420746865206f776e6572604482015260640161039c565b60026106be8282611e77565b6001600160a01b038316610cf35760405162461bcd60e51b815260040161039c90611f37565b8051825114610d145760405162461bcd60e51b815260040161039c90611d2c565b6000339050610d3781856000868660405180602001604052806000815250611363565b60005b8351811015610dfc576000848281518110610d5757610d57611c2e565b602002602001015190506000848381518110610d7557610d75611c2e565b602090810291909101810151600084815280835260408082206001600160a01b038c168352909352919091205490915081811015610dc55760405162461bcd60e51b815260040161039c90611f7a565b6000928352602083815260408085206001600160a01b038b1686529091529092209103905580610df481611c5a565b915050610d3a565b5060006001600160a01b0316846001600160a01b0316826001600160a01b03167f4a39dc06d4c0dbc64b70af90fd698a233a518aa5d07e595d983b8c0526c8f7fb8686604051610e4d929190611e03565b60405180910390a460408051602081019091526000905250505050565b600380546001600160a01b038381166001600160a01b0319831681179093556040519116919082907f8be0079c531659141344cd1fd0a4f28419497f9722a3daafe3b4186f6b6457e090600090a35050565b816001600160a01b0316836001600160a01b031603610f2f5760405162461bcd60e51b815260206004820152602960248201527f455243313135353a2073657474696e6720617070726f76616c20737461747573604482015268103337b91039b2b63360b91b606482015260840161039c565b6001600160a01b03838116600081815260016020908152604080832094871680845294825291829020805460ff191686151590811790915591519182527f17307eab39ab6107e8899845ad3d59bd9653f200f220920489ca2b5937696c31910160405180910390a3505050565b606081600003610fc35750506040805180820190915260018152600360fc1b602082015290565b8160005b8115610fed5780610fd781611c5a565b9150610fe69050600a83611fbe565b9150610fc7565b60008167ffffffffffffffff811115611008576110086116b6565b6040519080825280601f01601f191660200182016040528015611032576020820181803683370190505b509050815b85156110bf57611048600182611fe0565b90506000611057600a88611fbe565b61106290600a611ff3565b61106c9088611fe0565b61107790603061200a565b905060008160f81b90508084848151811061109457611094611c2e565b60200101906001600160f81b031916908160001a9053506110b6600a89611fbe565b97505050611037565b50949350505050565b6001600160a01b0384166110ee5760405162461bcd60e51b815260040161039c90611d74565b3360006110fa85611318565b9050600061110785611318565b9050611117838989858589611363565b6000868152602081815260408083206001600160a01b038c168452909152902054858110156111585760405162461bcd60e51b815260040161039c90611db9565b6000878152602081815260408083206001600160a01b038d8116855292528083208985039055908a16825281208054889290611195908490611d19565b909155505060408051888152602081018890526001600160a01b03808b16928c821692918816917fc3d58168c5ae7397731d063d5bbf3d657854427343f4c083240f7aacaa2d0f62910160405180910390a46111f5848a8a8a8a8a611371565b505050505050505050565b6001600160a01b0383166112265760405162461bcd60e51b815260040161039c90611f37565b33600061123284611318565b9050600061123f84611318565b905061125f83876000858560405180602001604052806000815250611363565b6000858152602081815260408083206001600160a01b038a168452909152902054848110156112a05760405162461bcd60e51b815260040161039c90611f7a565b6000868152602081815260408083206001600160a01b038b81168086529184528285208a8703905582518b81529384018a90529092908816917fc3d58168c5ae7397731d063d5bbf3d657854427343f4c083240f7aacaa2d0f62910160405180910390a4604080516020810190915260009052610992565b6040805160018082528183019092526060916000919060208083019080368337019050509050828160008151811061135257611352611c2e565b602090810291909101015292915050565b610994868686868686610819565b6001600160a01b0384163b156109945760405163f23a6e6160e01b81526001600160a01b0385169063f23a6e61906113b59089908990889088908890600401612023565b6020604051808303816000875af19250505080156113f0575060408051601f3d908101601f191682019092526113ed91810190612068565b60015b61149c576113fc612085565b806308c379a00361143557506114106120a1565b8061141b5750611437565b8060405162461bcd60e51b815260040161039c9190611670565b505b60405162461bcd60e51b815260206004820152603460248201527f455243313135353a207472616e7366657220746f206e6f6e2d455243313135356044820152732932b1b2b4bb32b91034b6b83632b6b2b73a32b960611b606482015260840161039c565b6001600160e01b0319811663f23a6e6160e01b146109925760405162461bcd60e51b815260040161039c9061212b565b6001600160a01b0384163b156109945760405163bc197c8160e01b81526001600160a01b0385169063bc197c81906115109089908990889088908890600401612173565b6020604051808303816000875af192505050801561154b575060408051601f3d908101601f1916820190925261154891810190612068565b60015b611557576113fc612085565b6001600160e01b0319811663bc197c8160e01b146109925760405162461bcd60e51b815260040161039c9061212b565b80356001600160a01b038116811461159e57600080fd5b919050565b600080604083850312156115b657600080fd5b6115bf83611587565b946020939093013593505050565b6001600160e01b03198116811461065957600080fd5b6000602082840312156115f557600080fd5b8135611600816115cd565b9392505050565b60006020828403121561161957600080fd5b5035919050565b60005b8381101561163b578181015183820152602001611623565b50506000910152565b6000815180845261165c816020860160208601611620565b601f01601f19169290920160200192915050565b6020815260006116006020830184611644565b60008060006060848603121561169857600080fd5b6116a184611587565b95602085013595506040909401359392505050565b634e487b7160e01b600052604160045260246000fd5b601f8201601f1916810167ffffffffffffffff811182821017156116f2576116f26116b6565b6040525050565b600067ffffffffffffffff821115611713576117136116b6565b5060051b60200190565b600082601f83011261172e57600080fd5b8135602061173b826116f9565b60405161174882826116cc565b83815260059390931b850182019282810191508684111561176857600080fd5b8286015b84811015611783578035835291830191830161176c565b509695505050505050565b600067ffffffffffffffff8311156117a8576117a86116b6565b6040516117bf601f8501601f1916602001826116cc565b8091508381528484840111156117d457600080fd5b83836020830137600060208583010152509392505050565b600082601f8301126117fd57600080fd5b6116008383356020850161178e565b600080600080600060a0868803121561182457600080fd5b61182d86611587565b945061183b60208701611587565b9350604086013567ffffffffffffffff8082111561185857600080fd5b61186489838a0161171d565b9450606088013591508082111561187a57600080fd5b61188689838a0161171d565b9350608088013591508082111561189c57600080fd5b506118a9888289016117ec565b9150509295509295909350565b600080604083850312156118c957600080fd5b823567ffffffffffffffff808211156118e157600080fd5b818501915085601f8301126118f557600080fd5b81356020611902826116f9565b60405161190f82826116cc565b83815260059390931b850182019282810191508984111561192f57600080fd5b948201945b838610156119545761194586611587565b82529482019490820190611934565b9650508601359250508082111561196a57600080fd5b506119778582860161171d565b9150509250929050565b600081518084526020808501945080840160005b838110156119b157815187529582019590820190600101611995565b509495945050505050565b6020815260006116006020830184611981565b6000602082840312156119e157600080fd5b813567ffffffffffffffff8111156119f857600080fd5b8201601f81018413611a0957600080fd5b611a188482356020840161178e565b949350505050565b600080600060608486031215611a3557600080fd5b611a3e84611587565b9250602084013567ffffffffffffffff80821115611a5b57600080fd5b611a678783880161171d565b93506040860135915080821115611a7d57600080fd5b50611a8a8682870161171d565b9150509250925092565b60008060408385031215611aa757600080fd5b611ab083611587565b915060208301358015158114611ac557600080fd5b809150509250929050565b60008060408385031215611ae357600080fd5b82359150611af360208401611587565b90509250929050565b60008060408385031215611b0f57600080fd5b611b1883611587565b9150611af360208401611587565b600080600080600060a08688031215611b3e57600080fd5b611b4786611587565b9450611b5560208701611587565b93506040860135925060608601359150608086013567ffffffffffffffff811115611b7f57600080fd5b6118a9888289016117ec565b600060208284031215611b9d57600080fd5b61160082611587565b600181811c90821680611bba57607f821691505b602082108103611bda57634e487b7160e01b600052602260045260246000fd5b50919050565b6020808252602e908201527f455243313135353a2063616c6c6572206973206e6f7420746f6b656e206f776e60408201526d195c881bdc88185c1c1c9bdd995960921b606082015260800190565b634e487b7160e01b600052603260045260246000fd5b634e487b7160e01b600052601160045260246000fd5b600060018201611c6c57611c6c611c44565b5060010190565b6000808454611c8181611ba6565b60018281168015611c995760018114611cae57611cdd565b60ff1984168752821515830287019450611cdd565b8860005260208060002060005b85811015611cd45781548a820152908401908201611cbb565b50505082870194505b50602f60f81b845286519250611cf98382860160208a01611620565b64173539b7b760d91b939092019182019290925260060195945050505050565b808201808211156103c8576103c8611c44565b60208082526028908201527f455243313135353a2069647320616e6420616d6f756e7473206c656e677468206040820152670dad2e6dac2e8c6d60c31b606082015260800190565b60208082526025908201527f455243313135353a207472616e7366657220746f20746865207a65726f206164604082015264647265737360d81b606082015260800190565b6020808252602a908201527f455243313135353a20696e73756666696369656e742062616c616e636520666f60408201526939103a3930b739b332b960b11b606082015260800190565b604081526000611e166040830185611981565b8281036020840152611e288185611981565b95945050505050565b601f8211156104cd57600081815260208120601f850160051c81016020861015611e585750805b601f850160051c820191505b8181101561099457828155600101611e64565b815167ffffffffffffffff811115611e9157611e916116b6565b611ea581611e9f8454611ba6565b84611e31565b602080601f831160018114611eda5760008415611ec25750858301515b600019600386901b1c1916600185901b178555610994565b600085815260208120601f198616915b82811015611f0957888601518255948401946001909101908401611eea565b5085821015611f275787850151600019600388901b60f8161c191681555b5050505050600190811b01905550565b60208082526023908201527f455243313135353a206275726e2066726f6d20746865207a65726f206164647260408201526265737360e81b606082015260800190565b60208082526024908201527f455243313135353a206275726e20616d6f756e7420657863656564732062616c604082015263616e636560e01b606082015260800190565b600082611fdb57634e487b7160e01b600052601260045260246000fd5b500490565b818103818111156103c8576103c8611c44565b80820281158282048414176103c8576103c8611c44565b60ff81811683821601908111156103c8576103c8611c44565b6001600160a01b03868116825285166020820152604081018490526060810183905260a06080820181905260009061205d90830184611644565b979650505050505050565b60006020828403121561207a57600080fd5b8151611600816115cd565b600060033d111561209e5760046000803e5060005160e01c5b90565b600060443d10156120af5790565b6040516003193d81016004833e81513d67ffffffffffffffff81602484011181841117156120df57505050505090565b82850191508151818111156120f75750505050505090565b843d87010160208285010111156121115750505050505090565b612120602082860101876116cc565b509095945050505050565b60208082526028908201527f455243313135353a204552433131353552656365697665722072656a656374656040820152676420746f6b656e7360c01b606082015260800190565b6001600160a01b0386811682528516602082015260a06040820181905260009061219f90830186611981565b82810360608401526121b18186611981565b905082810360808401526121c58185611644565b9897505050505050505056fea2646970667358221220c900510f0821a538ea24d9fad9ebd08d8f728cd301fcab1b532b389c56fafb0964736f6c6343000812003368747470733a2f2f697066732e696f2f697066732f516d55685759427a3769665958644b4d77666437467a72356255654c726a476a4d454b696e7a566253666d31684768747470733a2f2f697066732e696f2f697066732f516d55685759427a3769665958644b4d77666437467a72356255654c726a476a4d454b696e7a566253666d3168472f7b69647d2e6a736f6e",
  "devdoc": {
    "events": {
      "ApprovalForAll(address,address,bool)": {
        "details": "Emitted when `account` grants or revokes permission to `operator` to transfer their tokens, according to `approved`."
      },
      "TransferBatch(address,address,address,uint256[],uint256[])": {
        "details": "Equivalent to multiple {TransferSingle} events, where `operator`, `from` and `to` are the same for all transfers."
      },
      "TransferSingle(address,address,address,uint256,uint256)": {
        "details": "Emitted when `value` tokens of token type `id` are transferred from `from` to `to` by `operator`."
      },
      "URI(string,uint256)": {
        "details": "Emitted when the URI for token type `id` changes to `value`, if it is a non-programmatic URI. If an {URI} event was emitted for `id`, the standard https://eips.ethereum.org/EIPS/eip-1155#metadata-extensions[guarantees] that `value` will equal the value returned by {IERC1155MetadataURI-uri}."
      }
    },
    "kind": "dev",
    "methods": {
      "balanceOf(address,uint256)": {
        "details": "See {IERC1155-balanceOf}. Requirements: - `account` cannot be the zero address."
      },
      "balanceOfBatch(address[],uint256[])": {
        "details": "See {IERC1155-balanceOfBatch}. Requirements: - `accounts` and `ids` must have the same length."
      },
      "exists(uint256)": {
        "details": "Indicates whether any token exist with a given id, or not."
      },
      "isApprovedForAll(address,address)": {
        "details": "See {IERC1155-isApprovedForAll}."
      },
      "owner()": {
        "details": "Returns the address of the current owner."
      },
      "renounceOwnership()": {
        "details": "Leaves the contract without owner. It will not be possible to call `onlyOwner` functions. Can only be called by the current owner. NOTE: Renouncing ownership will leave the contract without an owner, thereby disabling any functionality that is only available to the owner."
      },
      "safeBatchTransferFrom(address,address,uint256[],uint256[],bytes)": {
        "details": "See {IERC1155-safeBatchTransferFrom}."
      },
      "safeTransferFrom(address,address,uint256,uint256,bytes)": {
        "details": "See {IERC1155-safeTransferFrom}."
      },
      "setApprovalForAll(address,bool)": {
        "details": "See {IERC1155-setApprovalForAll}."
      },
      "supportsInterface(bytes4)": {
        "details": "See {IERC165-supportsInterface}."
      },
      "totalSupply(uint256)": {
        "details": "Total amount of tokens in with a given id."
      },
      "transferOwnership(address)": {
        "details": "Transfers ownership of the contract to a new account (`newOwner`). Can only be called by the current owner."
      },
      "uri(uint256)": {
        "details": "See {IERC1155MetadataURI-uri}. This implementation returns the same URI for *all* token types. It relies on the token type ID substitution mechanism https://eips.ethereum.org/EIPS/eip-1155#metadata[defined in the EIP]. Clients calling this function must replace the `\\{id\\}` substring with the actual token type ID."
      }
    },
    "version": 1
  },
  "userdoc": {
    "kind": "user",
    "methods": {},
    "version": 1
  },
  "storageLayout": {
    "storage": [
      {
        "astId": 138,
        "contract": "contracts/Items.sol:Items",
        "label": "_balances",
        "offset": 0,
        "slot": "0",
        "type": "t_mapping(t_uint256,t_mapping(t_address,t_uint256))"
      },
      {
        "astId": 144,
        "contract": "contracts/Items.sol:Items",
        "label": "_operatorApprovals",
        "offset": 0,
        "slot": "1",
        "type": "t_mapping(t_address,t_mapping(t_address,t_bool))"
      },
      {
        "astId": 146,
        "contract": "contracts/Items.sol:Items",
        "label": "_uri",
        "offset": 0,
        "slot": "2",
        "type": "t_string_storage"
      },
      {
        "astId": 7,
        "contract": "contracts/Items.sol:Items",
        "label": "_owner",
        "offset": 0,
        "slot": "3",
        "type": "t_address"
      },
      {
        "astId": 1577,
        "contract": "contracts/Items.sol:Items",
        "label": "_totalSupply",
        "offset": 0,
        "slot": "4",
        "type": "t_mapping(t_uint256,t_uint256)"
      },
      {
        "astId": 2149,
        "contract": "contracts/Items.sol:Items",
        "label": "baseURI",
        "offset": 0,
        "slot": "5",
        "type": "t_string_storage"
      }
    ],
    "types": {
      "t_address": {
        "encoding": "inplace",
        "label": "address",
        "numberOfBytes": "20"
      },
      "t_bool": {
        "encoding": "inplace",
        "label": "bool",
        "numberOfBytes": "1"
      },
      "t_mapping(t_address,t_bool)": {
        "encoding": "mapping",
        "key": "t_address",
        "label": "mapping(address => bool)",
        "numberOfBytes": "32",
        "value": "t_bool"
      },
      "t_mapping(t_address,t_mapping(t_address,t_bool))": {
        "encoding": "mapping",
        "key": "t_address",
        "label": "mapping(address => mapping(address => bool))",
        "numberOfBytes": "32",
        "value": "t_mapping(t_address,t_bool)"
      },
      "t_mapping(t_address,t_uint256)": {
        "encoding": "mapping",
        "key": "t_address",
        "label": "mapping(address => uint256)",
        "numberOfBytes": "32",
        "value": "t_uint256"
      },
      "t_mapping(t_uint256,t_mapping(t_address,t_uint256))": {
        "encoding": "mapping",
        "key": "t_uint256",
        "label": "mapping(uint256 => mapping(address => uint256))",
        "numberOfBytes": "32",
        "value": "t_mapping(t_address,t_uint256)"
      },
      "t_mapping(t_uint256,t_uint256)": {
        "encoding": "mapping",
        "key": "t_uint256",
        "label": "mapping(uint256 => uint256)",
        "numberOfBytes": "32",
        "value": "t_uint256"
      },
      "t_string_storage": {
        "encoding": "bytes",
        "label": "string",
        "numberOfBytes": "32"
      },
      "t_uint256": {
        "encoding": "inplace",
        "label": "uint256",
        "numberOfBytes": "32"
      }
    }
  }
}