{
  "_format": "hh-sol-artifact-1",
  "contractName": "MainCharacters",
  "sourceName": "contracts/MainCharacters.sol",
  "abi": [
    {
      "inputs": [
        {
          "internalType": "string",
          "name": "_name",
          "type": "string"
        },
        {
          "internalType": "string",
          "name": "_symbol",
          "type": "string"
        },
        {
          "internalType": "string",
          "name": "_initBaseURI",
          "type": "string"
        }
      ],
      "stateMutability": "nonpayable",
      "type": "constructor"
    },
    {
      "anonymous": false,
      "inputs": [
        {
          "indexed": true,
          "internalType": "address",
          "name": "owner",
          "type": "address"
        },
        {
          "indexed": true,
          "internalType": "address",
          "name": "approved",
          "type": "address"
        },
        {
          "indexed": true,
          "internalType": "uint256",
          "name": "tokenId",
          "type": "uint256"
        }
      ],
      "name": "Approval",
      "type": "event"
    },
    {
      "anonymous": false,
      "inputs": [
        {
          "indexed": true,
          "internalType": "address",
          "name": "owner",
          "type": "address"
        },
        {
          "indexed": true,
          "internalType": "address",
          "name": "operator",
          "type": "address"
        },
        {
          "indexed": false,
          "internalType": "bool",
          "name": "approved",
          "type": "bool"
        }
      ],
      "name": "ApprovalForAll",
      "type": "event"
    },
    {
      "anonymous": false,
      "inputs": [
        {
          "indexed": true,
          "internalType": "address",
          "name": "previousOwner",
          "type": "address"
        },
        {
          "indexed": true,
          "internalType": "address",
          "name": "newOwner",
          "type": "address"
        }
      ],
      "name": "OwnershipTransferred",
      "type": "event"
    },
    {
      "anonymous": false,
      "inputs": [
        {
          "indexed": true,
          "internalType": "address",
          "name": "from",
          "type": "address"
        },
        {
          "indexed": true,
          "internalType": "address",
          "name": "to",
          "type": "address"
        },
        {
          "indexed": true,
          "internalType": "uint256",
          "name": "tokenId",
          "type": "uint256"
        }
      ],
      "name": "Transfer",
      "type": "event"
    },
    {
      "inputs": [
        {
          "internalType": "address",
          "name": "to",
          "type": "address"
        },
        {
          "internalType": "uint256",
          "name": "tokenId",
          "type": "uint256"
        }
      ],
      "name": "approve",
      "outputs": [],
      "stateMutability": "nonpayable",
      "type": "function"
    },
    {
      "inputs": [
        {
          "internalType": "address",
          "name": "owner",
          "type": "address"
        }
      ],
      "name": "balanceOf",
      "outputs": [
        {
          "internalType": "uint256",
          "name": "",
          "type": "uint256"
        }
      ],
      "stateMutability": "view",
      "type": "function"
    },
    {
      "inputs": [],
      "name": "baseExtension",
      "outputs": [
        {
          "internalType": "string",
          "name": "",
          "type": "string"
        }
      ],
      "stateMutability": "view",
      "type": "function"
    },
    {
      "inputs": [],
      "name": "cost",
      "outputs": [
        {
          "internalType": "uint256",
          "name": "",
          "type": "uint256"
        }
      ],
      "stateMutability": "view",
      "type": "function"
    },
    {
      "inputs": [],
      "name": "currentTokenId",
      "outputs": [
        {
          "internalType": "uint256",
          "name": "",
          "type": "uint256"
        }
      ],
      "stateMutability": "view",
      "type": "function"
    },
    {
      "inputs": [
        {
          "internalType": "uint256",
          "name": "tokenId",
          "type": "uint256"
        }
      ],
      "name": "getApproved",
      "outputs": [
        {
          "internalType": "address",
          "name": "",
          "type": "address"
        }
      ],
      "stateMutability": "view",
      "type": "function"
    },
    {
      "inputs": [
        {
          "internalType": "address",
          "name": "owner",
          "type": "address"
        },
        {
          "internalType": "address",
          "name": "operator",
          "type": "address"
        }
      ],
      "name": "isApprovedForAll",
      "outputs": [
        {
          "internalType": "bool",
          "name": "",
          "type": "bool"
        }
      ],
      "stateMutability": "view",
      "type": "function"
    },
    {
      "inputs": [],
      "name": "maxMintAmount",
      "outputs": [
        {
          "internalType": "uint256",
          "name": "",
          "type": "uint256"
        }
      ],
      "stateMutability": "view",
      "type": "function"
    },
    {
      "inputs": [],
      "name": "maxSupply",
      "outputs": [
        {
          "internalType": "uint256",
          "name": "",
          "type": "uint256"
        }
      ],
      "stateMutability": "view",
      "type": "function"
    },
    {
      "inputs": [
        {
          "internalType": "address",
          "name": "_to",
          "type": "address"
        },
        {
          "internalType": "uint256",
          "name": "_count",
          "type": "uint256"
        }
      ],
      "name": "mintToMulti",
      "outputs": [
        {
          "internalType": "uint256",
          "name": "",
          "type": "uint256"
        }
      ],
      "stateMutability": "nonpayable",
      "type": "function"
    },
    {
      "inputs": [],
      "name": "name",
      "outputs": [
        {
          "internalType": "string",
          "name": "",
          "type": "string"
        }
      ],
      "stateMutability": "view",
      "type": "function"
    },
    {
      "inputs": [],
      "name": "owner",
      "outputs": [
        {
          "internalType": "address",
          "name": "",
          "type": "address"
        }
      ],
      "stateMutability": "view",
      "type": "function"
    },
    {
      "inputs": [
        {
          "internalType": "uint256",
          "name": "tokenId",
          "type": "uint256"
        }
      ],
      "name": "ownerOf",
      "outputs": [
        {
          "internalType": "address",
          "name": "",
          "type": "address"
        }
      ],
      "stateMutability": "view",
      "type": "function"
    },
    {
      "inputs": [
        {
          "internalType": "bool",
          "name": "_state",
          "type": "bool"
        }
      ],
      "name": "pause",
      "outputs": [],
      "stateMutability": "nonpayable",
      "type": "function"
    },
    {
      "inputs": [],
      "name": "paused",
      "outputs": [
        {
          "internalType": "bool",
          "name": "",
          "type": "bool"
        }
      ],
      "stateMutability": "view",
      "type": "function"
    },
    {
      "inputs": [],
      "name": "renounceOwnership",
      "outputs": [],
      "stateMutability": "nonpayable",
      "type": "function"
    },
    {
      "inputs": [
        {
          "internalType": "address",
          "name": "from",
          "type": "address"
        },
        {
          "internalType": "address",
          "name": "to",
          "type": "address"
        },
        {
          "internalType": "uint256",
          "name": "tokenId",
          "type": "uint256"
        }
      ],
      "name": "safeTransferFrom",
      "outputs": [],
      "stateMutability": "nonpayable",
      "type": "function"
    },
    {
      "inputs": [
        {
          "internalType": "address",
          "name": "from",
          "type": "address"
        },
        {
          "internalType": "address",
          "name": "to",
          "type": "address"
        },
        {
          "internalType": "uint256",
          "name": "tokenId",
          "type": "uint256"
        },
        {
          "internalType": "bytes",
          "name": "data",
          "type": "bytes"
        }
      ],
      "name": "safeTransferFrom",
      "outputs": [],
      "stateMutability": "nonpayable",
      "type": "function"
    },
    {
      "inputs": [
        {
          "internalType": "address",
          "name": "operator",
          "type": "address"
        },
        {
          "internalType": "bool",
          "name": "approved",
          "type": "bool"
        }
      ],
      "name": "setApprovalForAll",
      "outputs": [],
      "stateMutability": "nonpayable",
      "type": "function"
    },
    {
      "inputs": [
        {
          "internalType": "string",
          "name": "_newBaseExtension",
          "type": "string"
        }
      ],
      "name": "setBaseExtension",
      "outputs": [],
      "stateMutability": "nonpayable",
      "type": "function"
    },
    {
      "inputs": [
        {
          "internalType": "string",
          "name": "_newBaseURI",
          "type": "string"
        }
      ],
      "name": "setBaseURI",
      "outputs": [],
      "stateMutability": "nonpayable",
      "type": "function"
    },
    {
      "inputs": [
        {
          "internalType": "uint256",
          "name": "_newCost",
          "type": "uint256"
        }
      ],
      "name": "setCost",
      "outputs": [],
      "stateMutability": "nonpayable",
      "type": "function"
    },
    {
      "inputs": [
        {
          "internalType": "uint256",
          "name": "_newmaxMintAmount",
          "type": "uint256"
        }
      ],
      "name": "setmaxMintAmount",
      "outputs": [],
      "stateMutability": "nonpayable",
      "type": "function"
    },
    {
      "inputs": [
        {
          "internalType": "bytes4",
          "name": "interfaceId",
          "type": "bytes4"
        }
      ],
      "name": "supportsInterface",
      "outputs": [
        {
          "internalType": "bool",
          "name": "",
          "type": "bool"
        }
      ],
      "stateMutability": "view",
      "type": "function"
    },
    {
      "inputs": [],
      "name": "symbol",
      "outputs": [
        {
          "internalType": "string",
          "name": "",
          "type": "string"
        }
      ],
      "stateMutability": "view",
      "type": "function"
    },
    {
      "inputs": [
        {
          "internalType": "uint256",
          "name": "index",
          "type": "uint256"
        }
      ],
      "name": "tokenByIndex",
      "outputs": [
        {
          "internalType": "uint256",
          "name": "",
          "type": "uint256"
        }
      ],
      "stateMutability": "view",
      "type": "function"
    },
    {
      "inputs": [
        {
          "internalType": "address",
          "name": "owner",
          "type": "address"
        },
        {
          "internalType": "uint256",
          "name": "index",
          "type": "uint256"
        }
      ],
      "name": "tokenOfOwnerByIndex",
      "outputs": [
        {
          "internalType": "uint256",
          "name": "",
          "type": "uint256"
        }
      ],
      "stateMutability": "view",
      "type": "function"
    },
    {
      "inputs": [
        {
          "internalType": "uint256",
          "name": "tokenId",
          "type": "uint256"
        }
      ],
      "name": "tokenURI",
      "outputs": [
        {
          "internalType": "string",
          "name": "",
          "type": "string"
        }
      ],
      "stateMutability": "view",
      "type": "function"
    },
    {
      "inputs": [],
      "name": "totalSupply",
      "outputs": [
        {
          "internalType": "uint256",
          "name": "",
          "type": "uint256"
        }
      ],
      "stateMutability": "view",
      "type": "function"
    },
    {
      "inputs": [
        {
          "internalType": "address",
          "name": "from",
          "type": "address"
        },
        {
          "internalType": "address",
          "name": "to",
          "type": "address"
        },
        {
          "internalType": "uint256",
          "name": "tokenId",
          "type": "uint256"
        }
      ],
      "name": "transferFrom",
      "outputs": [],
      "stateMutability": "nonpayable",
      "type": "function"
    },
    {
      "inputs": [
        {
          "internalType": "address",
          "name": "newOwner",
          "type": "address"
        }
      ],
      "name": "transferOwnership",
      "outputs": [],
      "stateMutability": "nonpayable",
      "type": "function"
    },
    {
      "inputs": [
        {
          "internalType": "address",
          "name": "_owner",
          "type": "address"
        }
      ],
      "name": "walletOfOwner",
      "outputs": [
        {
          "internalType": "uint256[]",
          "name": "",
          "type": "uint256[]"
        }
      ],
      "stateMutability": "view",
      "type": "function"
    },
    {
      "inputs": [],
      "name": "withdraw",
      "outputs": [],
      "stateMutability": "payable",
      "type": "function"
    }
  ],
  "bytecode": "0x60c06040526005608090815264173539b7b760d91b60a052600d9062000026908262000238565b506000600e556064600f5560146010556011805460ff191690553480156200004d57600080fd5b5060405162002601380380620026018339810160408190526200007091620003b3565b8282600062000080838262000238565b5060016200008f828262000238565b505050620000ac620000a6620000c060201b60201c565b620000c4565b620000b78162000116565b50505062000444565b3390565b600a80546001600160a01b038381166001600160a01b0319831681179093556040519116919082907f8be0079c531659141344cd1fd0a4f28419497f9722a3daafe3b4186f6b6457e090600090a35050565b6200012062000132565b600b6200012e828262000238565b5050565b600a546001600160a01b03163314620001915760405162461bcd60e51b815260206004820181905260248201527f4f776e61626c653a2063616c6c6572206973206e6f7420746865206f776e6572604482015260640160405180910390fd5b565b634e487b7160e01b600052604160045260246000fd5b600181811c90821680620001be57607f821691505b602082108103620001df57634e487b7160e01b600052602260045260246000fd5b50919050565b601f8211156200023357600081815260208120601f850160051c810160208610156200020e5750805b601f850160051c820191505b818110156200022f578281556001016200021a565b5050505b505050565b81516001600160401b0381111562000254576200025462000193565b6200026c81620002658454620001a9565b84620001e5565b602080601f831160018114620002a457600084156200028b5750858301515b600019600386901b1c1916600185901b1785556200022f565b600085815260208120601f198616915b82811015620002d557888601518255948401946001909101908401620002b4565b5085821015620002f45787850151600019600388901b60f8161c191681555b5050505050600190811b01905550565b600082601f8301126200031657600080fd5b81516001600160401b038082111562000333576200033362000193565b604051601f8301601f19908116603f011681019082821181831017156200035e576200035e62000193565b816040528381526020925086838588010111156200037b57600080fd5b600091505b838210156200039f578582018301518183018401529082019062000380565b600093810190920192909252949350505050565b600080600060608486031215620003c957600080fd5b83516001600160401b0380821115620003e157600080fd5b620003ef8783880162000304565b945060208601519150808211156200040657600080fd5b620004148783880162000304565b935060408601519150808211156200042b57600080fd5b506200043a8682870162000304565b9150509250925092565b6121ad80620004546000396000f3fe6080604052600436106101ed5760003560e01c806355f804b31161010d578063a22cb465116100a0578063c87b56dd1161006f578063c87b56dd14610554578063d5abeb0114610574578063da3ef23f1461058a578063e985e9c5146105aa578063f2fde38b146105f357600080fd5b8063a22cb465146104df578063b88d4fde146104ff578063bfdc85fd1461051f578063c66828621461053f57600080fd5b8063715018a6116100dc578063715018a6146104775780637f00c7a61461048c5780638da5cb5b146104ac57806395d89b41146104ca57600080fd5b806355f804b3146103fd5780635c975abb1461041d5780636352211e1461043757806370a082311461045757600080fd5b8063239c70ae1161018557806342842e0e1161015457806342842e0e14610370578063438b63001461039057806344a0d68a146103bd5780634f6ccce7146103dd57600080fd5b8063239c70ae1461031257806323b872dd146103285780632f745c59146103485780633ccfd60b1461036857600080fd5b8063081812fc116101c1578063081812fc1461028f578063095ea7b3146102c757806313faede6146102e757806318160ddd146102fd57600080fd5b80629a9b7b146101f257806301ffc9a71461021b57806302329a291461024b57806306fdde031461026d575b600080fd5b3480156101fe57600080fd5b50610208600c5481565b6040519081526020015b60405180910390f35b34801561022757600080fd5b5061023b610236366004611a7d565b610613565b6040519015158152602001610212565b34801561025757600080fd5b5061026b610266366004611aaf565b61063e565b005b34801561027957600080fd5b50610282610659565b6040516102129190611b1a565b34801561029b57600080fd5b506102af6102aa366004611b2d565b6106eb565b6040516001600160a01b039091168152602001610212565b3480156102d357600080fd5b5061026b6102e2366004611b5d565b610712565b3480156102f357600080fd5b50610208600e5481565b34801561030957600080fd5b50600854610208565b34801561031e57600080fd5b5061020860105481565b34801561033457600080fd5b5061026b610343366004611b87565b61082c565b34801561035457600080fd5b50610208610363366004611b5d565b61085d565b61026b6108f3565b34801561037c57600080fd5b5061026b61038b366004611b87565b61096f565b34801561039c57600080fd5b506103b06103ab366004611bc3565b61098a565b6040516102129190611bde565b3480156103c957600080fd5b5061026b6103d8366004611b2d565b610a2c565b3480156103e957600080fd5b506102086103f8366004611b2d565b610a39565b34801561040957600080fd5b5061026b610418366004611cae565b610acc565b34801561042957600080fd5b5060115461023b9060ff1681565b34801561044357600080fd5b506102af610452366004611b2d565b610ae4565b34801561046357600080fd5b50610208610472366004611bc3565b610b44565b34801561048357600080fd5b5061026b610bca565b34801561049857600080fd5b5061026b6104a7366004611b2d565b610bde565b3480156104b857600080fd5b50600a546001600160a01b03166102af565b3480156104d657600080fd5b50610282610beb565b3480156104eb57600080fd5b5061026b6104fa366004611cf7565b610bfa565b34801561050b57600080fd5b5061026b61051a366004611d2a565b610c05565b34801561052b57600080fd5b5061020861053a366004611b5d565b610c3d565b34801561054b57600080fd5b50610282610c92565b34801561056057600080fd5b5061028261056f366004611b2d565b610d20565b34801561058057600080fd5b50610208600f5481565b34801561059657600080fd5b5061026b6105a5366004611cae565b610dfe565b3480156105b657600080fd5b5061023b6105c5366004611da6565b6001600160a01b03918216600090815260056020908152604080832093909416825291909152205460ff1690565b3480156105ff57600080fd5b5061026b61060e366004611bc3565b610e12565b60006001600160e01b0319821663780e9d6360e01b1480610638575061063882610e88565b92915050565b610646610ed8565b6011805460ff1916911515919091179055565b60606000805461066890611dd0565b80601f016020809104026020016040519081016040528092919081815260200182805461069490611dd0565b80156106e15780601f106106b6576101008083540402835291602001916106e1565b820191906000526020600020905b8154815290600101906020018083116106c457829003601f168201915b5050505050905090565b60006106f682610f32565b506000908152600460205260409020546001600160a01b031690565b600061071d82610ae4565b9050806001600160a01b0316836001600160a01b03160361078f5760405162461bcd60e51b815260206004820152602160248201527f4552433732313a20617070726f76616c20746f2063757272656e74206f776e656044820152603960f91b60648201526084015b60405180910390fd5b336001600160a01b03821614806107ab57506107ab81336105c5565b61081d5760405162461bcd60e51b815260206004820152603d60248201527f4552433732313a20617070726f76652063616c6c6572206973206e6f7420746f60448201527f6b656e206f776e6572206f7220617070726f76656420666f7220616c6c0000006064820152608401610786565b6108278383610f91565b505050565b6108363382610fff565b6108525760405162461bcd60e51b815260040161078690611e0a565b61082783838361107e565b600061086883610b44565b82106108ca5760405162461bcd60e51b815260206004820152602b60248201527f455243373231456e756d657261626c653a206f776e657220696e646578206f7560448201526a74206f6620626f756e647360a81b6064820152608401610786565b506001600160a01b03919091166000908152600660209081526040808320938352929052205490565b6108fb610ed8565b600061090f600a546001600160a01b031690565b6001600160a01b03164760405160006040518083038185875af1925050503d8060008114610959576040519150601f19603f3d011682016040523d82523d6000602084013e61095e565b606091505b505090508061096c57600080fd5b50565b61082783838360405180602001604052806000815250610c05565b6060600061099783610b44565b905060008167ffffffffffffffff8111156109b4576109b4611c22565b6040519080825280602002602001820160405280156109dd578160200160208202803683370190505b50905060005b82811015610a24576109f5858261085d565b828281518110610a0757610a07611e57565b602090810291909101015280610a1c81611e83565b9150506109e3565b509392505050565b610a34610ed8565b600e55565b6000610a4460085490565b8210610aa75760405162461bcd60e51b815260206004820152602c60248201527f455243373231456e756d657261626c653a20676c6f62616c20696e646578206f60448201526b7574206f6620626f756e647360a01b6064820152608401610786565b60088281548110610aba57610aba611e57565b90600052602060002001549050919050565b610ad4610ed8565b600b610ae08282611eea565b5050565b6000818152600260205260408120546001600160a01b0316806106385760405162461bcd60e51b8152602060048201526018602482015277115490cdcc8c4e881a5b9d985b1a59081d1bdad95b88125160421b6044820152606401610786565b60006001600160a01b038216610bae5760405162461bcd60e51b815260206004820152602960248201527f4552433732313a2061646472657373207a65726f206973206e6f7420612076616044820152683634b21037bbb732b960b91b6064820152608401610786565b506001600160a01b031660009081526003602052604090205490565b610bd2610ed8565b610bdc60006111ef565b565b610be6610ed8565b601055565b60606001805461066890611dd0565b610ae0338383611241565b610c0f3383610fff565b610c2b5760405162461bcd60e51b815260040161078690611e0a565b610c378484848461130f565b50505050565b600c54600090815b83811015610c7257610c6085610c5b8385611faa565b611342565b80610c6a81611e83565b915050610c45565b5082600c6000828254610c859190611faa565b9091555090949350505050565b600d8054610c9f90611dd0565b80601f0160208091040260200160405190810160405280929190818152602001828054610ccb90611dd0565b8015610d185780601f10610ced57610100808354040283529160200191610d18565b820191906000526020600020905b815481529060010190602001808311610cfb57829003601f168201915b505050505081565b6000818152600260205260409020546060906001600160a01b0316610d9f5760405162461bcd60e51b815260206004820152602f60248201527f4552433732314d657461646174613a2055524920717565727920666f72206e6f60448201526e3732bc34b9ba32b73a103a37b5b2b760891b6064820152608401610786565b6000610da961135c565b90506000815111610dc95760405180602001604052806000815250610df7565b80610dd38461136b565b600d604051602001610de793929190611fbd565b6040516020818303038152906040525b9392505050565b610e06610ed8565b600d610ae08282611eea565b610e1a610ed8565b6001600160a01b038116610e7f5760405162461bcd60e51b815260206004820152602660248201527f4f776e61626c653a206e6577206f776e657220697320746865207a65726f206160448201526564647265737360d01b6064820152608401610786565b61096c816111ef565b60006001600160e01b031982166380ac58cd60e01b1480610eb957506001600160e01b03198216635b5e139f60e01b145b8061063857506301ffc9a760e01b6001600160e01b0319831614610638565b600a546001600160a01b03163314610bdc5760405162461bcd60e51b815260206004820181905260248201527f4f776e61626c653a2063616c6c6572206973206e6f7420746865206f776e65726044820152606401610786565b6000818152600260205260409020546001600160a01b031661096c5760405162461bcd60e51b8152602060048201526018602482015277115490cdcc8c4e881a5b9d985b1a59081d1bdad95b88125160421b6044820152606401610786565b600081815260046020526040902080546001600160a01b0319166001600160a01b0384169081179091558190610fc682610ae4565b6001600160a01b03167f8c5be1e5ebec7d5bd14f71427d1e84f3dd0314c0f7b2291e5b200ac8c7c3b92560405160405180910390a45050565b60008061100b83610ae4565b9050806001600160a01b0316846001600160a01b0316148061105257506001600160a01b0380821660009081526005602090815260408083209388168352929052205460ff165b806110765750836001600160a01b031661106b846106eb565b6001600160a01b0316145b949350505050565b826001600160a01b031661109182610ae4565b6001600160a01b0316146110b75760405162461bcd60e51b81526004016107869061205d565b6001600160a01b0382166111195760405162461bcd60e51b8152602060048201526024808201527f4552433732313a207472616e7366657220746f20746865207a65726f206164646044820152637265737360e01b6064820152608401610786565b61112683838360016113fe565b826001600160a01b031661113982610ae4565b6001600160a01b03161461115f5760405162461bcd60e51b81526004016107869061205d565b600081815260046020908152604080832080546001600160a01b03199081169091556001600160a01b0387811680865260038552838620805460001901905590871680865283862080546001019055868652600290945282852080549092168417909155905184937fddf252ad1be2c89b69c2b068fc378daa952ba7f163c4a11628f55a4df523b3ef91a4505050565b600a80546001600160a01b038381166001600160a01b0319831681179093556040519116919082907f8be0079c531659141344cd1fd0a4f28419497f9722a3daafe3b4186f6b6457e090600090a35050565b816001600160a01b0316836001600160a01b0316036112a25760405162461bcd60e51b815260206004820152601960248201527f4552433732313a20617070726f766520746f2063616c6c6572000000000000006044820152606401610786565b6001600160a01b03838116600081815260056020908152604080832094871680845294825291829020805460ff191686151590811790915591519182527f17307eab39ab6107e8899845ad3d59bd9653f200f220920489ca2b5937696c31910160405180910390a3505050565b61131a84848461107e565b61132684848484611532565b610c375760405162461bcd60e51b8152600401610786906120a2565b610ae0828260405180602001604052806000815250611633565b6060600b805461066890611dd0565b6060600061137883611666565b600101905060008167ffffffffffffffff81111561139857611398611c22565b6040519080825280601f01601f1916602001820160405280156113c2576020820181803683370190505b5090508181016020015b600019016f181899199a1a9b1b9c1cb0b131b232b360811b600a86061a8153600a85049450846113cc57509392505050565b600181111561146d5760405162461bcd60e51b815260206004820152603560248201527f455243373231456e756d657261626c653a20636f6e7365637574697665207472604482015274185b9cd9995c9cc81b9bdd081cdd5c1c1bdc9d1959605a1b6064820152608401610786565b816001600160a01b0385166114c9576114c481600880546000838152600960205260408120829055600182018355919091527ff3f7a9fe364faab93b216da50a3214154f22a0a2b415b23a84c8169e8b636ee30155565b6114ec565b836001600160a01b0316856001600160a01b0316146114ec576114ec858261173e565b6001600160a01b03841661150857611503816117db565b61152b565b846001600160a01b0316846001600160a01b03161461152b5761152b848261188a565b5050505050565b60006001600160a01b0384163b1561162857604051630a85bd0160e11b81526001600160a01b0385169063150b7a02906115769033908990889088906004016120f4565b6020604051808303816000875af19250505080156115b1575060408051601f3d908101601f191682019092526115ae91810190612131565b60015b61160e573d8080156115df576040519150601f19603f3d011682016040523d82523d6000602084013e6115e4565b606091505b5080516000036116065760405162461bcd60e51b8152600401610786906120a2565b805181602001fd5b6001600160e01b031916630a85bd0160e11b149050611076565b506001949350505050565b61163d83836118ce565b61164a6000848484611532565b6108275760405162461bcd60e51b8152600401610786906120a2565b60008072184f03e93ff9f4daa797ed6e38ed64bf6a1f0160401b83106116a55772184f03e93ff9f4daa797ed6e38ed64bf6a1f0160401b830492506040015b6d04ee2d6d415b85acef810000000083106116d1576d04ee2d6d415b85acef8100000000830492506020015b662386f26fc1000083106116ef57662386f26fc10000830492506010015b6305f5e1008310611707576305f5e100830492506008015b612710831061171b57612710830492506004015b6064831061172d576064830492506002015b600a83106106385760010192915050565b6000600161174b84610b44565b611755919061214e565b6000838152600760205260409020549091508082146117a8576001600160a01b03841660009081526006602090815260408083208584528252808320548484528184208190558352600790915290208190555b5060009182526007602090815260408084208490556001600160a01b039094168352600681528383209183525290812055565b6008546000906117ed9060019061214e565b6000838152600960205260408120546008805493945090928490811061181557611815611e57565b90600052602060002001549050806008838154811061183657611836611e57565b600091825260208083209091019290925582815260099091526040808220849055858252812055600880548061186e5761186e612161565b6001900381819060005260206000200160009055905550505050565b600061189583610b44565b6001600160a01b039093166000908152600660209081526040808320868452825280832085905593825260079052919091209190915550565b6001600160a01b0382166119245760405162461bcd60e51b815260206004820181905260248201527f4552433732313a206d696e7420746f20746865207a65726f20616464726573736044820152606401610786565b6000818152600260205260409020546001600160a01b0316156119895760405162461bcd60e51b815260206004820152601c60248201527f4552433732313a20746f6b656e20616c7265616479206d696e746564000000006044820152606401610786565b6119976000838360016113fe565b6000818152600260205260409020546001600160a01b0316156119fc5760405162461bcd60e51b815260206004820152601c60248201527f4552433732313a20746f6b656e20616c7265616479206d696e746564000000006044820152606401610786565b6001600160a01b038216600081815260036020908152604080832080546001019055848352600290915280822080546001600160a01b0319168417905551839291907fddf252ad1be2c89b69c2b068fc378daa952ba7f163c4a11628f55a4df523b3ef908290a45050565b6001600160e01b03198116811461096c57600080fd5b600060208284031215611a8f57600080fd5b8135610df781611a67565b80358015158114611aaa57600080fd5b919050565b600060208284031215611ac157600080fd5b610df782611a9a565b60005b83811015611ae5578181015183820152602001611acd565b50506000910152565b60008151808452611b06816020860160208601611aca565b601f01601f19169290920160200192915050565b602081526000610df76020830184611aee565b600060208284031215611b3f57600080fd5b5035919050565b80356001600160a01b0381168114611aaa57600080fd5b60008060408385031215611b7057600080fd5b611b7983611b46565b946020939093013593505050565b600080600060608486031215611b9c57600080fd5b611ba584611b46565b9250611bb360208501611b46565b9150604084013590509250925092565b600060208284031215611bd557600080fd5b610df782611b46565b6020808252825182820181905260009190848201906040850190845b81811015611c1657835183529284019291840191600101611bfa565b50909695505050505050565b634e487b7160e01b600052604160045260246000fd5b600067ffffffffffffffff80841115611c5357611c53611c22565b604051601f8501601f19908116603f01168101908282118183101715611c7b57611c7b611c22565b81604052809350858152868686011115611c9457600080fd5b858560208301376000602087830101525050509392505050565b600060208284031215611cc057600080fd5b813567ffffffffffffffff811115611cd757600080fd5b8201601f81018413611ce857600080fd5b61107684823560208401611c38565b60008060408385031215611d0a57600080fd5b611d1383611b46565b9150611d2160208401611a9a565b90509250929050565b60008060008060808587031215611d4057600080fd5b611d4985611b46565b9350611d5760208601611b46565b925060408501359150606085013567ffffffffffffffff811115611d7a57600080fd5b8501601f81018713611d8b57600080fd5b611d9a87823560208401611c38565b91505092959194509250565b60008060408385031215611db957600080fd5b611dc283611b46565b9150611d2160208401611b46565b600181811c90821680611de457607f821691505b602082108103611e0457634e487b7160e01b600052602260045260246000fd5b50919050565b6020808252602d908201527f4552433732313a2063616c6c6572206973206e6f7420746f6b656e206f776e6560408201526c1c881bdc88185c1c1c9bdd9959609a1b606082015260800190565b634e487b7160e01b600052603260045260246000fd5b634e487b7160e01b600052601160045260246000fd5b600060018201611e9557611e95611e6d565b5060010190565b601f82111561082757600081815260208120601f850160051c81016020861015611ec35750805b601f850160051c820191505b81811015611ee257828155600101611ecf565b505050505050565b815167ffffffffffffffff811115611f0457611f04611c22565b611f1881611f128454611dd0565b84611e9c565b602080601f831160018114611f4d5760008415611f355750858301515b600019600386901b1c1916600185901b178555611ee2565b600085815260208120601f198616915b82811015611f7c57888601518255948401946001909101908401611f5d565b5085821015611f9a5787850151600019600388901b60f8161c191681555b5050505050600190811b01905550565b8082018082111561063857610638611e6d565b600084516020611fd08285838a01611aca565b855191840191611fe38184848a01611aca565b8554920191600090611ff481611dd0565b6001828116801561200c57600181146120215761204d565b60ff198416875282151583028701945061204d565b896000528560002060005b848110156120455781548982015290830190870161202c565b505082870194505b50929a9950505050505050505050565b60208082526025908201527f4552433732313a207472616e736665722066726f6d20696e636f72726563742060408201526437bbb732b960d91b606082015260800190565b60208082526032908201527f4552433732313a207472616e7366657220746f206e6f6e20455243373231526560408201527131b2b4bb32b91034b6b83632b6b2b73a32b960711b606082015260800190565b6001600160a01b038581168252841660208201526040810183905260806060820181905260009061212790830184611aee565b9695505050505050565b60006020828403121561214357600080fd5b8151610df781611a67565b8181038181111561063857610638611e6d565b634e487b7160e01b600052603160045260246000fdfea26469706673582212200d0c21db42b946d7f853cadda2f2d9a5eb0c33588ecbf23983bce75272a857e664736f6c63430008120033",
  "linkReferences": {},
  "deployedLinkReferences": {}
}